{
	"data": {
		"bytecode": {
			"linkReferences": {},
			"object": "6080604052348015600e575f80fd5b506112798061001c5f395ff3fe608060405234801561000f575f80fd5b5060043610610086575f3560e01c8063eb3734d611610059578063eb3734d61461013b578063ed70e88b1461016b578063f0a47f7814610187578063fb4326fa146101ba57610086565b80636b7b44d71461008a5780637cce1c03146100bc578063a6c807a9146100d8578063cd4e00251461010b575b5f80fd5b6100a4600480360381019061009f9190610c02565b6101ec565b6040516100b393929190610cb5565b60405180910390f35b6100d660048036038101906100d19190610e4e565b6103d5565b005b6100f260048036038101906100ed9190610c02565b61052f565b6040516101029493929190610ee5565b60405180910390f35b61012560048036038101906101209190610f36565b610685565b6040516101329190610f61565b60405180910390f35b61015560048036038101906101509190610f36565b6106c0565b6040516101629190610f61565b60405180910390f35b61018560048036038101906101809190610e4e565b6106fb565b005b6101a1600480360381019061019c9190610c02565b610856565b6040516101b19493929190610ee5565b60405180910390f35b6101d460048036038101906101cf9190610c02565b6109ad565b6040516101e393929190610cb5565b60405180910390f35b60605f60605f805f8673ffffffffffffffffffffffffffffffffffffffff1673ffffffffffffffffffffffffffffffffffffffff1681526020019081526020015f206040518060800160405290815f8201805461024890610fa7565b80601f016020809104026020016040519081016040528092919081815260200182805461027490610fa7565b80156102bf5780601f10610296576101008083540402835291602001916102bf565b820191905f5260205f20905b8154815290600101906020018083116102a257829003601f168201915b50505050508152602001600182015481526020016002820180546102e290610fa7565b80601f016020809104026020016040519081016040528092919081815260200182805461030e90610fa7565b80156103595780601f1061033057610100808354040283529160200191610359565b820191905f5260205f20905b81548152906001019060200180831161033c57829003601f168201915b50505050508152602001600382015f9054906101000a900473ffffffffffffffffffffffffffffffffffffffff1673ffffffffffffffffffffffffffffffffffffffff1673ffffffffffffffffffffffffffffffffffffffff16815250509050805f015181602001518260400151935093509350509193909250565b5f60405180608001604052808581526020018481526020018381526020013373ffffffffffffffffffffffffffffffffffffffff168152509050805f803373ffffffffffffffffffffffffffffffffffffffff1673ffffffffffffffffffffffffffffffffffffffff1681526020019081526020015f205f820151815f01908161045f9190611174565b5060208201518160010155604082015181600201908161047f9190611174565b506060820151816003015f6101000a81548173ffffffffffffffffffffffffffffffffffffffff021916908373ffffffffffffffffffffffffffffffffffffffff160217905550905050600233908060018154018082558091505060019003905f5260205f20015f9091909190916101000a81548173ffffffffffffffffffffffffffffffffffffffff021916908373ffffffffffffffffffffffffffffffffffffffff16021790555050505050565b5f602052805f5260405f205f91509050805f01805461054d90610fa7565b80601f016020809104026020016040519081016040528092919081815260200182805461057990610fa7565b80156105c45780601f1061059b576101008083540402835291602001916105c4565b820191905f5260205f20905b8154815290600101906020018083116105a757829003601f168201915b5050505050908060010154908060020180546105df90610fa7565b80601f016020809104026020016040519081016040528092919081815260200182805461060b90610fa7565b80156106565780601f1061062d57610100808354040283529160200191610656565b820191905f5260205f20905b81548152906001019060200180831161063957829003601f168201915b505050505090806003015f9054906101000a900473ffffffffffffffffffffffffffffffffffffffff16905084565b60028181548110610694575f80fd5b905f5260205f20015f915054906101000a900473ffffffffffffffffffffffffffffffffffffffff1681565b600381815481106106cf575f80fd5b905f5260205f20015f915054906101000a900473ffffffffffffffffffffffffffffffffffffffff1681565b5f60405180608001604052808581526020018481526020018381526020013373ffffffffffffffffffffffffffffffffffffffff1681525090508060015f3373ffffffffffffffffffffffffffffffffffffffff1673ffffffffffffffffffffffffffffffffffffffff1681526020019081526020015f205f820151815f0190816107869190611174565b506020820151816001015560408201518160020190816107a69190611174565b506060820151816003015f6101000a81548173ffffffffffffffffffffffffffffffffffffffff021916908373ffffffffffffffffffffffffffffffffffffffff160217905550905050600333908060018154018082558091505060019003905f5260205f20015f9091909190916101000a81548173ffffffffffffffffffffffffffffffffffffffff021916908373ffffffffffffffffffffffffffffffffffffffff16021790555050505050565b6001602052805f5260405f205f91509050805f01805461087590610fa7565b80601f01602080910402602001604051908101604052809291908181526020018280546108a190610fa7565b80156108ec5780601f106108c3576101008083540402835291602001916108ec565b820191905f5260205f20905b8154815290600101906020018083116108cf57829003601f168201915b50505050509080600101549080600201805461090790610fa7565b80601f016020809104026020016040519081016040528092919081815260200182805461093390610fa7565b801561097e5780601f106109555761010080835404028352916020019161097e565b820191905f5260205f20905b81548152906001019060200180831161096157829003601f168201915b505050505090806003015f9054906101000a900473ffffffffffffffffffffffffffffffffffffffff16905084565b60605f60605f60015f8673ffffffffffffffffffffffffffffffffffffffff1673ffffffffffffffffffffffffffffffffffffffff1681526020019081526020015f206040518060800160405290815f82018054610a0a90610fa7565b80601f0160208091040260200160405190810160405280929190818152602001828054610a3690610fa7565b8015610a815780601f10610a5857610100808354040283529160200191610a81565b820191905f5260205f20905b815481529060010190602001808311610a6457829003601f168201915b5050505050815260200160018201548152602001600282018054610aa490610fa7565b80601f0160208091040260200160405190810160405280929190818152602001828054610ad090610fa7565b8015610b1b5780601f10610af257610100808354040283529160200191610b1b565b820191905f5260205f20905b815481529060010190602001808311610afe57829003601f168201915b50505050508152602001600382015f9054906101000a900473ffffffffffffffffffffffffffffffffffffffff1673ffffffffffffffffffffffffffffffffffffffff1673ffffffffffffffffffffffffffffffffffffffff16815250509050805f015181602001518260400151935093509350509193909250565b5f604051905090565b5f80fd5b5f80fd5b5f73ffffffffffffffffffffffffffffffffffffffff82169050919050565b5f610bd182610ba8565b9050919050565b610be181610bc7565b8114610beb575f80fd5b50565b5f81359050610bfc81610bd8565b92915050565b5f60208284031215610c1757610c16610ba0565b5b5f610c2484828501610bee565b91505092915050565b5f81519050919050565b5f82825260208201905092915050565b8281835e5f83830152505050565b5f601f19601f8301169050919050565b5f610c6f82610c2d565b610c798185610c37565b9350610c89818560208601610c47565b610c9281610c55565b840191505092915050565b5f819050919050565b610caf81610c9d565b82525050565b5f6060820190508181035f830152610ccd8186610c65565b9050610cdc6020830185610ca6565b8181036040830152610cee8184610c65565b9050949350505050565b5f80fd5b5f80fd5b7f4e487b71000000000000000000000000000000000000000000000000000000005f52604160045260245ffd5b610d3682610c55565b810181811067ffffffffffffffff82111715610d5557610d54610d00565b5b80604052505050565b5f610d67610b97565b9050610d738282610d2d565b919050565b5f67ffffffffffffffff821115610d9257610d91610d00565b5b610d9b82610c55565b9050602081019050919050565b828183375f83830152505050565b5f610dc8610dc384610d78565b610d5e565b905082815260208101848484011115610de457610de3610cfc565b5b610def848285610da8565b509392505050565b5f82601f830112610e0b57610e0a610cf8565b5b8135610e1b848260208601610db6565b91505092915050565b610e2d81610c9d565b8114610e37575f80fd5b50565b5f81359050610e4881610e24565b92915050565b5f805f60608486031215610e6557610e64610ba0565b5b5f84013567ffffffffffffffff811115610e8257610e81610ba4565b5b610e8e86828701610df7565b9350506020610e9f86828701610e3a565b925050604084013567ffffffffffffffff811115610ec057610ebf610ba4565b5b610ecc86828701610df7565b9150509250925092565b610edf81610bc7565b82525050565b5f6080820190508181035f830152610efd8187610c65565b9050610f0c6020830186610ca6565b8181036040830152610f1e8185610c65565b9050610f2d6060830184610ed6565b95945050505050565b5f60208284031215610f4b57610f4a610ba0565b5b5f610f5884828501610e3a565b91505092915050565b5f602082019050610f745f830184610ed6565b92915050565b7f4e487b71000000000000000000000000000000000000000000000000000000005f52602260045260245ffd5b5f6002820490506001821680610fbe57607f821691505b602082108103610fd157610fd0610f7a565b5b50919050565b5f819050815f5260205f209050919050565b5f6020601f8301049050919050565b5f82821b905092915050565b5f600883026110337fffffffffffffffffffffffffffffffffffffffffffffffffffffffffffffffff82610ff8565b61103d8683610ff8565b95508019841693508086168417925050509392505050565b5f819050919050565b5f61107861107361106e84610c9d565b611055565b610c9d565b9050919050565b5f819050919050565b6110918361105e565b6110a561109d8261107f565b848454611004565b825550505050565b5f90565b6110b96110ad565b6110c4818484611088565b505050565b5b818110156110e7576110dc5f826110b1565b6001810190506110ca565b5050565b601f82111561112c576110fd81610fd7565b61110684610fe9565b81016020851015611115578190505b61112961112185610fe9565b8301826110c9565b50505b505050565b5f82821c905092915050565b5f61114c5f1984600802611131565b1980831691505092915050565b5f611164838361113d565b9150826002028217905092915050565b61117d82610c2d565b67ffffffffffffffff81111561119657611195610d00565b5b6111a08254610fa7565b6111ab8282856110eb565b5f60209050601f8311600181146111dc575f84156111ca578287015190505b6111d48582611159565b86555061123b565b601f1984166111ea86610fd7565b5f5b82811015611211578489015182556001820191506020850194506020810190506111ec565b8683101561122e578489015161122a601f89168261113d565b8355505b6001600288020188555050505b50505050505056fea264697066735822122080da800958cbd6a09adf877553d53a08a3969e989bdc67a1442c311b86f2da8c64736f6c634300081a0033",
			"opcodes": "PUSH1 0x80 PUSH1 0x40 MSTORE CALLVALUE DUP1 ISZERO PUSH1 0xE JUMPI PUSH0 DUP1 REVERT JUMPDEST POP PUSH2 0x1279 DUP1 PUSH2 0x1C PUSH0 CODECOPY PUSH0 RETURN INVALID PUSH1 0x80 PUSH1 0x40 MSTORE CALLVALUE DUP1 ISZERO PUSH2 0xF JUMPI PUSH0 DUP1 REVERT JUMPDEST POP PUSH1 0x4 CALLDATASIZE LT PUSH2 0x86 JUMPI PUSH0 CALLDATALOAD PUSH1 0xE0 SHR DUP1 PUSH4 0xEB3734D6 GT PUSH2 0x59 JUMPI DUP1 PUSH4 0xEB3734D6 EQ PUSH2 0x13B JUMPI DUP1 PUSH4 0xED70E88B EQ PUSH2 0x16B JUMPI DUP1 PUSH4 0xF0A47F78 EQ PUSH2 0x187 JUMPI DUP1 PUSH4 0xFB4326FA EQ PUSH2 0x1BA JUMPI PUSH2 0x86 JUMP JUMPDEST DUP1 PUSH4 0x6B7B44D7 EQ PUSH2 0x8A JUMPI DUP1 PUSH4 0x7CCE1C03 EQ PUSH2 0xBC JUMPI DUP1 PUSH4 0xA6C807A9 EQ PUSH2 0xD8 JUMPI DUP1 PUSH4 0xCD4E0025 EQ PUSH2 0x10B JUMPI JUMPDEST PUSH0 DUP1 REVERT JUMPDEST PUSH2 0xA4 PUSH1 0x4 DUP1 CALLDATASIZE SUB DUP2 ADD SWAP1 PUSH2 0x9F SWAP2 SWAP1 PUSH2 0xC02 JUMP JUMPDEST PUSH2 0x1EC JUMP JUMPDEST PUSH1 0x40 MLOAD PUSH2 0xB3 SWAP4 SWAP3 SWAP2 SWAP1 PUSH2 0xCB5 JUMP JUMPDEST PUSH1 0x40 MLOAD DUP1 SWAP2 SUB SWAP1 RETURN JUMPDEST PUSH2 0xD6 PUSH1 0x4 DUP1 CALLDATASIZE SUB DUP2 ADD SWAP1 PUSH2 0xD1 SWAP2 SWAP1 PUSH2 0xE4E JUMP JUMPDEST PUSH2 0x3D5 JUMP JUMPDEST STOP JUMPDEST PUSH2 0xF2 PUSH1 0x4 DUP1 CALLDATASIZE SUB DUP2 ADD SWAP1 PUSH2 0xED SWAP2 SWAP1 PUSH2 0xC02 JUMP JUMPDEST PUSH2 0x52F JUMP JUMPDEST PUSH1 0x40 MLOAD PUSH2 0x102 SWAP5 SWAP4 SWAP3 SWAP2 SWAP1 PUSH2 0xEE5 JUMP JUMPDEST PUSH1 0x40 MLOAD DUP1 SWAP2 SUB SWAP1 RETURN JUMPDEST PUSH2 0x125 PUSH1 0x4 DUP1 CALLDATASIZE SUB DUP2 ADD SWAP1 PUSH2 0x120 SWAP2 SWAP1 PUSH2 0xF36 JUMP JUMPDEST PUSH2 0x685 JUMP JUMPDEST PUSH1 0x40 MLOAD PUSH2 0x132 SWAP2 SWAP1 PUSH2 0xF61 JUMP JUMPDEST PUSH1 0x40 MLOAD DUP1 SWAP2 SUB SWAP1 RETURN JUMPDEST PUSH2 0x155 PUSH1 0x4 DUP1 CALLDATASIZE SUB DUP2 ADD SWAP1 PUSH2 0x150 SWAP2 SWAP1 PUSH2 0xF36 JUMP JUMPDEST PUSH2 0x6C0 JUMP JUMPDEST PUSH1 0x40 MLOAD PUSH2 0x162 SWAP2 SWAP1 PUSH2 0xF61 JUMP JUMPDEST PUSH1 0x40 MLOAD DUP1 SWAP2 SUB SWAP1 RETURN JUMPDEST PUSH2 0x185 PUSH1 0x4 DUP1 CALLDATASIZE SUB DUP2 ADD SWAP1 PUSH2 0x180 SWAP2 SWAP1 PUSH2 0xE4E JUMP JUMPDEST PUSH2 0x6FB JUMP JUMPDEST STOP JUMPDEST PUSH2 0x1A1 PUSH1 0x4 DUP1 CALLDATASIZE SUB DUP2 ADD SWAP1 PUSH2 0x19C SWAP2 SWAP1 PUSH2 0xC02 JUMP JUMPDEST PUSH2 0x856 JUMP JUMPDEST PUSH1 0x40 MLOAD PUSH2 0x1B1 SWAP5 SWAP4 SWAP3 SWAP2 SWAP1 PUSH2 0xEE5 JUMP JUMPDEST PUSH1 0x40 MLOAD DUP1 SWAP2 SUB SWAP1 RETURN JUMPDEST PUSH2 0x1D4 PUSH1 0x4 DUP1 CALLDATASIZE SUB DUP2 ADD SWAP1 PUSH2 0x1CF SWAP2 SWAP1 PUSH2 0xC02 JUMP JUMPDEST PUSH2 0x9AD JUMP JUMPDEST PUSH1 0x40 MLOAD PUSH2 0x1E3 SWAP4 SWAP3 SWAP2 SWAP1 PUSH2 0xCB5 JUMP JUMPDEST PUSH1 0x40 MLOAD DUP1 SWAP2 SUB SWAP1 RETURN JUMPDEST PUSH1 0x60 PUSH0 PUSH1 0x60 PUSH0 DUP1 PUSH0 DUP7 PUSH20 0xFFFFFFFFFFFFFFFFFFFFFFFFFFFFFFFFFFFFFFFF AND PUSH20 0xFFFFFFFFFFFFFFFFFFFFFFFFFFFFFFFFFFFFFFFF AND DUP2 MSTORE PUSH1 0x20 ADD SWAP1 DUP2 MSTORE PUSH1 0x20 ADD PUSH0 KECCAK256 PUSH1 0x40 MLOAD DUP1 PUSH1 0x80 ADD PUSH1 0x40 MSTORE SWAP1 DUP2 PUSH0 DUP3 ADD DUP1 SLOAD PUSH2 0x248 SWAP1 PUSH2 0xFA7 JUMP JUMPDEST DUP1 PUSH1 0x1F ADD PUSH1 0x20 DUP1 SWAP2 DIV MUL PUSH1 0x20 ADD PUSH1 0x40 MLOAD SWAP1 DUP2 ADD PUSH1 0x40 MSTORE DUP1 SWAP3 SWAP2 SWAP1 DUP2 DUP2 MSTORE PUSH1 0x20 ADD DUP3 DUP1 SLOAD PUSH2 0x274 SWAP1 PUSH2 0xFA7 JUMP JUMPDEST DUP1 ISZERO PUSH2 0x2BF JUMPI DUP1 PUSH1 0x1F LT PUSH2 0x296 JUMPI PUSH2 0x100 DUP1 DUP4 SLOAD DIV MUL DUP4 MSTORE SWAP2 PUSH1 0x20 ADD SWAP2 PUSH2 0x2BF JUMP JUMPDEST DUP3 ADD SWAP2 SWAP1 PUSH0 MSTORE PUSH1 0x20 PUSH0 KECCAK256 SWAP1 JUMPDEST DUP2 SLOAD DUP2 MSTORE SWAP1 PUSH1 0x1 ADD SWAP1 PUSH1 0x20 ADD DUP1 DUP4 GT PUSH2 0x2A2 JUMPI DUP3 SWAP1 SUB PUSH1 0x1F AND DUP3 ADD SWAP2 JUMPDEST POP POP POP POP POP DUP2 MSTORE PUSH1 0x20 ADD PUSH1 0x1 DUP3 ADD SLOAD DUP2 MSTORE PUSH1 0x20 ADD PUSH1 0x2 DUP3 ADD DUP1 SLOAD PUSH2 0x2E2 SWAP1 PUSH2 0xFA7 JUMP JUMPDEST DUP1 PUSH1 0x1F ADD PUSH1 0x20 DUP1 SWAP2 DIV MUL PUSH1 0x20 ADD PUSH1 0x40 MLOAD SWAP1 DUP2 ADD PUSH1 0x40 MSTORE DUP1 SWAP3 SWAP2 SWAP1 DUP2 DUP2 MSTORE PUSH1 0x20 ADD DUP3 DUP1 SLOAD PUSH2 0x30E SWAP1 PUSH2 0xFA7 JUMP JUMPDEST DUP1 ISZERO PUSH2 0x359 JUMPI DUP1 PUSH1 0x1F LT PUSH2 0x330 JUMPI PUSH2 0x100 DUP1 DUP4 SLOAD DIV MUL DUP4 MSTORE SWAP2 PUSH1 0x20 ADD SWAP2 PUSH2 0x359 JUMP JUMPDEST DUP3 ADD SWAP2 SWAP1 PUSH0 MSTORE PUSH1 0x20 PUSH0 KECCAK256 SWAP1 JUMPDEST DUP2 SLOAD DUP2 MSTORE SWAP1 PUSH1 0x1 ADD SWAP1 PUSH1 0x20 ADD DUP1 DUP4 GT PUSH2 0x33C JUMPI DUP3 SWAP1 SUB PUSH1 0x1F AND DUP3 ADD SWAP2 JUMPDEST POP POP POP POP POP DUP2 MSTORE PUSH1 0x20 ADD PUSH1 0x3 DUP3 ADD PUSH0 SWAP1 SLOAD SWAP1 PUSH2 0x100 EXP SWAP1 DIV PUSH20 0xFFFFFFFFFFFFFFFFFFFFFFFFFFFFFFFFFFFFFFFF AND PUSH20 0xFFFFFFFFFFFFFFFFFFFFFFFFFFFFFFFFFFFFFFFF AND PUSH20 0xFFFFFFFFFFFFFFFFFFFFFFFFFFFFFFFFFFFFFFFF AND DUP2 MSTORE POP POP SWAP1 POP DUP1 PUSH0 ADD MLOAD DUP2 PUSH1 0x20 ADD MLOAD DUP3 PUSH1 0x40 ADD MLOAD SWAP4 POP SWAP4 POP SWAP4 POP POP SWAP2 SWAP4 SWAP1 SWAP3 POP JUMP JUMPDEST PUSH0 PUSH1 0x40 MLOAD DUP1 PUSH1 0x80 ADD PUSH1 0x40 MSTORE DUP1 DUP6 DUP2 MSTORE PUSH1 0x20 ADD DUP5 DUP2 MSTORE PUSH1 0x20 ADD DUP4 DUP2 MSTORE PUSH1 0x20 ADD CALLER PUSH20 0xFFFFFFFFFFFFFFFFFFFFFFFFFFFFFFFFFFFFFFFF AND DUP2 MSTORE POP SWAP1 POP DUP1 PUSH0 DUP1 CALLER PUSH20 0xFFFFFFFFFFFFFFFFFFFFFFFFFFFFFFFFFFFFFFFF AND PUSH20 0xFFFFFFFFFFFFFFFFFFFFFFFFFFFFFFFFFFFFFFFF AND DUP2 MSTORE PUSH1 0x20 ADD SWAP1 DUP2 MSTORE PUSH1 0x20 ADD PUSH0 KECCAK256 PUSH0 DUP3 ADD MLOAD DUP2 PUSH0 ADD SWAP1 DUP2 PUSH2 0x45F SWAP2 SWAP1 PUSH2 0x1174 JUMP JUMPDEST POP PUSH1 0x20 DUP3 ADD MLOAD DUP2 PUSH1 0x1 ADD SSTORE PUSH1 0x40 DUP3 ADD MLOAD DUP2 PUSH1 0x2 ADD SWAP1 DUP2 PUSH2 0x47F SWAP2 SWAP1 PUSH2 0x1174 JUMP JUMPDEST POP PUSH1 0x60 DUP3 ADD MLOAD DUP2 PUSH1 0x3 ADD PUSH0 PUSH2 0x100 EXP DUP2 SLOAD DUP2 PUSH20 0xFFFFFFFFFFFFFFFFFFFFFFFFFFFFFFFFFFFFFFFF MUL NOT AND SWAP1 DUP4 PUSH20 0xFFFFFFFFFFFFFFFFFFFFFFFFFFFFFFFFFFFFFFFF AND MUL OR SWAP1 SSTORE POP SWAP1 POP POP PUSH1 0x2 CALLER SWAP1 DUP1 PUSH1 0x1 DUP2 SLOAD ADD DUP1 DUP3 SSTORE DUP1 SWAP2 POP POP PUSH1 0x1 SWAP1 SUB SWAP1 PUSH0 MSTORE PUSH1 0x20 PUSH0 KECCAK256 ADD PUSH0 SWAP1 SWAP2 SWAP1 SWAP2 SWAP1 SWAP2 PUSH2 0x100 EXP DUP2 SLOAD DUP2 PUSH20 0xFFFFFFFFFFFFFFFFFFFFFFFFFFFFFFFFFFFFFFFF MUL NOT AND SWAP1 DUP4 PUSH20 0xFFFFFFFFFFFFFFFFFFFFFFFFFFFFFFFFFFFFFFFF AND MUL OR SWAP1 SSTORE POP POP POP POP POP JUMP JUMPDEST PUSH0 PUSH1 0x20 MSTORE DUP1 PUSH0 MSTORE PUSH1 0x40 PUSH0 KECCAK256 PUSH0 SWAP2 POP SWAP1 POP DUP1 PUSH0 ADD DUP1 SLOAD PUSH2 0x54D SWAP1 PUSH2 0xFA7 JUMP JUMPDEST DUP1 PUSH1 0x1F ADD PUSH1 0x20 DUP1 SWAP2 DIV MUL PUSH1 0x20 ADD PUSH1 0x40 MLOAD SWAP1 DUP2 ADD PUSH1 0x40 MSTORE DUP1 SWAP3 SWAP2 SWAP1 DUP2 DUP2 MSTORE PUSH1 0x20 ADD DUP3 DUP1 SLOAD PUSH2 0x579 SWAP1 PUSH2 0xFA7 JUMP JUMPDEST DUP1 ISZERO PUSH2 0x5C4 JUMPI DUP1 PUSH1 0x1F LT PUSH2 0x59B JUMPI PUSH2 0x100 DUP1 DUP4 SLOAD DIV MUL DUP4 MSTORE SWAP2 PUSH1 0x20 ADD SWAP2 PUSH2 0x5C4 JUMP JUMPDEST DUP3 ADD SWAP2 SWAP1 PUSH0 MSTORE PUSH1 0x20 PUSH0 KECCAK256 SWAP1 JUMPDEST DUP2 SLOAD DUP2 MSTORE SWAP1 PUSH1 0x1 ADD SWAP1 PUSH1 0x20 ADD DUP1 DUP4 GT PUSH2 0x5A7 JUMPI DUP3 SWAP1 SUB PUSH1 0x1F AND DUP3 ADD SWAP2 JUMPDEST POP POP POP POP POP SWAP1 DUP1 PUSH1 0x1 ADD SLOAD SWAP1 DUP1 PUSH1 0x2 ADD DUP1 SLOAD PUSH2 0x5DF SWAP1 PUSH2 0xFA7 JUMP JUMPDEST DUP1 PUSH1 0x1F ADD PUSH1 0x20 DUP1 SWAP2 DIV MUL PUSH1 0x20 ADD PUSH1 0x40 MLOAD SWAP1 DUP2 ADD PUSH1 0x40 MSTORE DUP1 SWAP3 SWAP2 SWAP1 DUP2 DUP2 MSTORE PUSH1 0x20 ADD DUP3 DUP1 SLOAD PUSH2 0x60B SWAP1 PUSH2 0xFA7 JUMP JUMPDEST DUP1 ISZERO PUSH2 0x656 JUMPI DUP1 PUSH1 0x1F LT PUSH2 0x62D JUMPI PUSH2 0x100 DUP1 DUP4 SLOAD DIV MUL DUP4 MSTORE SWAP2 PUSH1 0x20 ADD SWAP2 PUSH2 0x656 JUMP JUMPDEST DUP3 ADD SWAP2 SWAP1 PUSH0 MSTORE PUSH1 0x20 PUSH0 KECCAK256 SWAP1 JUMPDEST DUP2 SLOAD DUP2 MSTORE SWAP1 PUSH1 0x1 ADD SWAP1 PUSH1 0x20 ADD DUP1 DUP4 GT PUSH2 0x639 JUMPI DUP3 SWAP1 SUB PUSH1 0x1F AND DUP3 ADD SWAP2 JUMPDEST POP POP POP POP POP SWAP1 DUP1 PUSH1 0x3 ADD PUSH0 SWAP1 SLOAD SWAP1 PUSH2 0x100 EXP SWAP1 DIV PUSH20 0xFFFFFFFFFFFFFFFFFFFFFFFFFFFFFFFFFFFFFFFF AND SWAP1 POP DUP5 JUMP JUMPDEST PUSH1 0x2 DUP2 DUP2 SLOAD DUP2 LT PUSH2 0x694 JUMPI PUSH0 DUP1 REVERT JUMPDEST SWAP1 PUSH0 MSTORE PUSH1 0x20 PUSH0 KECCAK256 ADD PUSH0 SWAP2 POP SLOAD SWAP1 PUSH2 0x100 EXP SWAP1 DIV PUSH20 0xFFFFFFFFFFFFFFFFFFFFFFFFFFFFFFFFFFFFFFFF AND DUP2 JUMP JUMPDEST PUSH1 0x3 DUP2 DUP2 SLOAD DUP2 LT PUSH2 0x6CF JUMPI PUSH0 DUP1 REVERT JUMPDEST SWAP1 PUSH0 MSTORE PUSH1 0x20 PUSH0 KECCAK256 ADD PUSH0 SWAP2 POP SLOAD SWAP1 PUSH2 0x100 EXP SWAP1 DIV PUSH20 0xFFFFFFFFFFFFFFFFFFFFFFFFFFFFFFFFFFFFFFFF AND DUP2 JUMP JUMPDEST PUSH0 PUSH1 0x40 MLOAD DUP1 PUSH1 0x80 ADD PUSH1 0x40 MSTORE DUP1 DUP6 DUP2 MSTORE PUSH1 0x20 ADD DUP5 DUP2 MSTORE PUSH1 0x20 ADD DUP4 DUP2 MSTORE PUSH1 0x20 ADD CALLER PUSH20 0xFFFFFFFFFFFFFFFFFFFFFFFFFFFFFFFFFFFFFFFF AND DUP2 MSTORE POP SWAP1 POP DUP1 PUSH1 0x1 PUSH0 CALLER PUSH20 0xFFFFFFFFFFFFFFFFFFFFFFFFFFFFFFFFFFFFFFFF AND PUSH20 0xFFFFFFFFFFFFFFFFFFFFFFFFFFFFFFFFFFFFFFFF AND DUP2 MSTORE PUSH1 0x20 ADD SWAP1 DUP2 MSTORE PUSH1 0x20 ADD PUSH0 KECCAK256 PUSH0 DUP3 ADD MLOAD DUP2 PUSH0 ADD SWAP1 DUP2 PUSH2 0x786 SWAP2 SWAP1 PUSH2 0x1174 JUMP JUMPDEST POP PUSH1 0x20 DUP3 ADD MLOAD DUP2 PUSH1 0x1 ADD SSTORE PUSH1 0x40 DUP3 ADD MLOAD DUP2 PUSH1 0x2 ADD SWAP1 DUP2 PUSH2 0x7A6 SWAP2 SWAP1 PUSH2 0x1174 JUMP JUMPDEST POP PUSH1 0x60 DUP3 ADD MLOAD DUP2 PUSH1 0x3 ADD PUSH0 PUSH2 0x100 EXP DUP2 SLOAD DUP2 PUSH20 0xFFFFFFFFFFFFFFFFFFFFFFFFFFFFFFFFFFFFFFFF MUL NOT AND SWAP1 DUP4 PUSH20 0xFFFFFFFFFFFFFFFFFFFFFFFFFFFFFFFFFFFFFFFF AND MUL OR SWAP1 SSTORE POP SWAP1 POP POP PUSH1 0x3 CALLER SWAP1 DUP1 PUSH1 0x1 DUP2 SLOAD ADD DUP1 DUP3 SSTORE DUP1 SWAP2 POP POP PUSH1 0x1 SWAP1 SUB SWAP1 PUSH0 MSTORE PUSH1 0x20 PUSH0 KECCAK256 ADD PUSH0 SWAP1 SWAP2 SWAP1 SWAP2 SWAP1 SWAP2 PUSH2 0x100 EXP DUP2 SLOAD DUP2 PUSH20 0xFFFFFFFFFFFFFFFFFFFFFFFFFFFFFFFFFFFFFFFF MUL NOT AND SWAP1 DUP4 PUSH20 0xFFFFFFFFFFFFFFFFFFFFFFFFFFFFFFFFFFFFFFFF AND MUL OR SWAP1 SSTORE POP POP POP POP POP JUMP JUMPDEST PUSH1 0x1 PUSH1 0x20 MSTORE DUP1 PUSH0 MSTORE PUSH1 0x40 PUSH0 KECCAK256 PUSH0 SWAP2 POP SWAP1 POP DUP1 PUSH0 ADD DUP1 SLOAD PUSH2 0x875 SWAP1 PUSH2 0xFA7 JUMP JUMPDEST DUP1 PUSH1 0x1F ADD PUSH1 0x20 DUP1 SWAP2 DIV MUL PUSH1 0x20 ADD PUSH1 0x40 MLOAD SWAP1 DUP2 ADD PUSH1 0x40 MSTORE DUP1 SWAP3 SWAP2 SWAP1 DUP2 DUP2 MSTORE PUSH1 0x20 ADD DUP3 DUP1 SLOAD PUSH2 0x8A1 SWAP1 PUSH2 0xFA7 JUMP JUMPDEST DUP1 ISZERO PUSH2 0x8EC JUMPI DUP1 PUSH1 0x1F LT PUSH2 0x8C3 JUMPI PUSH2 0x100 DUP1 DUP4 SLOAD DIV MUL DUP4 MSTORE SWAP2 PUSH1 0x20 ADD SWAP2 PUSH2 0x8EC JUMP JUMPDEST DUP3 ADD SWAP2 SWAP1 PUSH0 MSTORE PUSH1 0x20 PUSH0 KECCAK256 SWAP1 JUMPDEST DUP2 SLOAD DUP2 MSTORE SWAP1 PUSH1 0x1 ADD SWAP1 PUSH1 0x20 ADD DUP1 DUP4 GT PUSH2 0x8CF JUMPI DUP3 SWAP1 SUB PUSH1 0x1F AND DUP3 ADD SWAP2 JUMPDEST POP POP POP POP POP SWAP1 DUP1 PUSH1 0x1 ADD SLOAD SWAP1 DUP1 PUSH1 0x2 ADD DUP1 SLOAD PUSH2 0x907 SWAP1 PUSH2 0xFA7 JUMP JUMPDEST DUP1 PUSH1 0x1F ADD PUSH1 0x20 DUP1 SWAP2 DIV MUL PUSH1 0x20 ADD PUSH1 0x40 MLOAD SWAP1 DUP2 ADD PUSH1 0x40 MSTORE DUP1 SWAP3 SWAP2 SWAP1 DUP2 DUP2 MSTORE PUSH1 0x20 ADD DUP3 DUP1 SLOAD PUSH2 0x933 SWAP1 PUSH2 0xFA7 JUMP JUMPDEST DUP1 ISZERO PUSH2 0x97E JUMPI DUP1 PUSH1 0x1F LT PUSH2 0x955 JUMPI PUSH2 0x100 DUP1 DUP4 SLOAD DIV MUL DUP4 MSTORE SWAP2 PUSH1 0x20 ADD SWAP2 PUSH2 0x97E JUMP JUMPDEST DUP3 ADD SWAP2 SWAP1 PUSH0 MSTORE PUSH1 0x20 PUSH0 KECCAK256 SWAP1 JUMPDEST DUP2 SLOAD DUP2 MSTORE SWAP1 PUSH1 0x1 ADD SWAP1 PUSH1 0x20 ADD DUP1 DUP4 GT PUSH2 0x961 JUMPI DUP3 SWAP1 SUB PUSH1 0x1F AND DUP3 ADD SWAP2 JUMPDEST POP POP POP POP POP SWAP1 DUP1 PUSH1 0x3 ADD PUSH0 SWAP1 SLOAD SWAP1 PUSH2 0x100 EXP SWAP1 DIV PUSH20 0xFFFFFFFFFFFFFFFFFFFFFFFFFFFFFFFFFFFFFFFF AND SWAP1 POP DUP5 JUMP JUMPDEST PUSH1 0x60 PUSH0 PUSH1 0x60 PUSH0 PUSH1 0x1 PUSH0 DUP7 PUSH20 0xFFFFFFFFFFFFFFFFFFFFFFFFFFFFFFFFFFFFFFFF AND PUSH20 0xFFFFFFFFFFFFFFFFFFFFFFFFFFFFFFFFFFFFFFFF AND DUP2 MSTORE PUSH1 0x20 ADD SWAP1 DUP2 MSTORE PUSH1 0x20 ADD PUSH0 KECCAK256 PUSH1 0x40 MLOAD DUP1 PUSH1 0x80 ADD PUSH1 0x40 MSTORE SWAP1 DUP2 PUSH0 DUP3 ADD DUP1 SLOAD PUSH2 0xA0A SWAP1 PUSH2 0xFA7 JUMP JUMPDEST DUP1 PUSH1 0x1F ADD PUSH1 0x20 DUP1 SWAP2 DIV MUL PUSH1 0x20 ADD PUSH1 0x40 MLOAD SWAP1 DUP2 ADD PUSH1 0x40 MSTORE DUP1 SWAP3 SWAP2 SWAP1 DUP2 DUP2 MSTORE PUSH1 0x20 ADD DUP3 DUP1 SLOAD PUSH2 0xA36 SWAP1 PUSH2 0xFA7 JUMP JUMPDEST DUP1 ISZERO PUSH2 0xA81 JUMPI DUP1 PUSH1 0x1F LT PUSH2 0xA58 JUMPI PUSH2 0x100 DUP1 DUP4 SLOAD DIV MUL DUP4 MSTORE SWAP2 PUSH1 0x20 ADD SWAP2 PUSH2 0xA81 JUMP JUMPDEST DUP3 ADD SWAP2 SWAP1 PUSH0 MSTORE PUSH1 0x20 PUSH0 KECCAK256 SWAP1 JUMPDEST DUP2 SLOAD DUP2 MSTORE SWAP1 PUSH1 0x1 ADD SWAP1 PUSH1 0x20 ADD DUP1 DUP4 GT PUSH2 0xA64 JUMPI DUP3 SWAP1 SUB PUSH1 0x1F AND DUP3 ADD SWAP2 JUMPDEST POP POP POP POP POP DUP2 MSTORE PUSH1 0x20 ADD PUSH1 0x1 DUP3 ADD SLOAD DUP2 MSTORE PUSH1 0x20 ADD PUSH1 0x2 DUP3 ADD DUP1 SLOAD PUSH2 0xAA4 SWAP1 PUSH2 0xFA7 JUMP JUMPDEST DUP1 PUSH1 0x1F ADD PUSH1 0x20 DUP1 SWAP2 DIV MUL PUSH1 0x20 ADD PUSH1 0x40 MLOAD SWAP1 DUP2 ADD PUSH1 0x40 MSTORE DUP1 SWAP3 SWAP2 SWAP1 DUP2 DUP2 MSTORE PUSH1 0x20 ADD DUP3 DUP1 SLOAD PUSH2 0xAD0 SWAP1 PUSH2 0xFA7 JUMP JUMPDEST DUP1 ISZERO PUSH2 0xB1B JUMPI DUP1 PUSH1 0x1F LT PUSH2 0xAF2 JUMPI PUSH2 0x100 DUP1 DUP4 SLOAD DIV MUL DUP4 MSTORE SWAP2 PUSH1 0x20 ADD SWAP2 PUSH2 0xB1B JUMP JUMPDEST DUP3 ADD SWAP2 SWAP1 PUSH0 MSTORE PUSH1 0x20 PUSH0 KECCAK256 SWAP1 JUMPDEST DUP2 SLOAD DUP2 MSTORE SWAP1 PUSH1 0x1 ADD SWAP1 PUSH1 0x20 ADD DUP1 DUP4 GT PUSH2 0xAFE JUMPI DUP3 SWAP1 SUB PUSH1 0x1F AND DUP3 ADD SWAP2 JUMPDEST POP POP POP POP POP DUP2 MSTORE PUSH1 0x20 ADD PUSH1 0x3 DUP3 ADD PUSH0 SWAP1 SLOAD SWAP1 PUSH2 0x100 EXP SWAP1 DIV PUSH20 0xFFFFFFFFFFFFFFFFFFFFFFFFFFFFFFFFFFFFFFFF AND PUSH20 0xFFFFFFFFFFFFFFFFFFFFFFFFFFFFFFFFFFFFFFFF AND PUSH20 0xFFFFFFFFFFFFFFFFFFFFFFFFFFFFFFFFFFFFFFFF AND DUP2 MSTORE POP POP SWAP1 POP DUP1 PUSH0 ADD MLOAD DUP2 PUSH1 0x20 ADD MLOAD DUP3 PUSH1 0x40 ADD MLOAD SWAP4 POP SWAP4 POP SWAP4 POP POP SWAP2 SWAP4 SWAP1 SWAP3 POP JUMP JUMPDEST PUSH0 PUSH1 0x40 MLOAD SWAP1 POP SWAP1 JUMP JUMPDEST PUSH0 DUP1 REVERT JUMPDEST PUSH0 DUP1 REVERT JUMPDEST PUSH0 PUSH20 0xFFFFFFFFFFFFFFFFFFFFFFFFFFFFFFFFFFFFFFFF DUP3 AND SWAP1 POP SWAP2 SWAP1 POP JUMP JUMPDEST PUSH0 PUSH2 0xBD1 DUP3 PUSH2 0xBA8 JUMP JUMPDEST SWAP1 POP SWAP2 SWAP1 POP JUMP JUMPDEST PUSH2 0xBE1 DUP2 PUSH2 0xBC7 JUMP JUMPDEST DUP2 EQ PUSH2 0xBEB JUMPI PUSH0 DUP1 REVERT JUMPDEST POP JUMP JUMPDEST PUSH0 DUP2 CALLDATALOAD SWAP1 POP PUSH2 0xBFC DUP2 PUSH2 0xBD8 JUMP JUMPDEST SWAP3 SWAP2 POP POP JUMP JUMPDEST PUSH0 PUSH1 0x20 DUP3 DUP5 SUB SLT ISZERO PUSH2 0xC17 JUMPI PUSH2 0xC16 PUSH2 0xBA0 JUMP JUMPDEST JUMPDEST PUSH0 PUSH2 0xC24 DUP5 DUP3 DUP6 ADD PUSH2 0xBEE JUMP JUMPDEST SWAP2 POP POP SWAP3 SWAP2 POP POP JUMP JUMPDEST PUSH0 DUP2 MLOAD SWAP1 POP SWAP2 SWAP1 POP JUMP JUMPDEST PUSH0 DUP3 DUP3 MSTORE PUSH1 0x20 DUP3 ADD SWAP1 POP SWAP3 SWAP2 POP POP JUMP JUMPDEST DUP3 DUP2 DUP4 MCOPY PUSH0 DUP4 DUP4 ADD MSTORE POP POP POP JUMP JUMPDEST PUSH0 PUSH1 0x1F NOT PUSH1 0x1F DUP4 ADD AND SWAP1 POP SWAP2 SWAP1 POP JUMP JUMPDEST PUSH0 PUSH2 0xC6F DUP3 PUSH2 0xC2D JUMP JUMPDEST PUSH2 0xC79 DUP2 DUP6 PUSH2 0xC37 JUMP JUMPDEST SWAP4 POP PUSH2 0xC89 DUP2 DUP6 PUSH1 0x20 DUP7 ADD PUSH2 0xC47 JUMP JUMPDEST PUSH2 0xC92 DUP2 PUSH2 0xC55 JUMP JUMPDEST DUP5 ADD SWAP2 POP POP SWAP3 SWAP2 POP POP JUMP JUMPDEST PUSH0 DUP2 SWAP1 POP SWAP2 SWAP1 POP JUMP JUMPDEST PUSH2 0xCAF DUP2 PUSH2 0xC9D JUMP JUMPDEST DUP3 MSTORE POP POP JUMP JUMPDEST PUSH0 PUSH1 0x60 DUP3 ADD SWAP1 POP DUP2 DUP2 SUB PUSH0 DUP4 ADD MSTORE PUSH2 0xCCD DUP2 DUP7 PUSH2 0xC65 JUMP JUMPDEST SWAP1 POP PUSH2 0xCDC PUSH1 0x20 DUP4 ADD DUP6 PUSH2 0xCA6 JUMP JUMPDEST DUP2 DUP2 SUB PUSH1 0x40 DUP4 ADD MSTORE PUSH2 0xCEE DUP2 DUP5 PUSH2 0xC65 JUMP JUMPDEST SWAP1 POP SWAP5 SWAP4 POP POP POP POP JUMP JUMPDEST PUSH0 DUP1 REVERT JUMPDEST PUSH0 DUP1 REVERT JUMPDEST PUSH32 0x4E487B7100000000000000000000000000000000000000000000000000000000 PUSH0 MSTORE PUSH1 0x41 PUSH1 0x4 MSTORE PUSH1 0x24 PUSH0 REVERT JUMPDEST PUSH2 0xD36 DUP3 PUSH2 0xC55 JUMP JUMPDEST DUP2 ADD DUP2 DUP2 LT PUSH8 0xFFFFFFFFFFFFFFFF DUP3 GT OR ISZERO PUSH2 0xD55 JUMPI PUSH2 0xD54 PUSH2 0xD00 JUMP JUMPDEST JUMPDEST DUP1 PUSH1 0x40 MSTORE POP POP POP JUMP JUMPDEST PUSH0 PUSH2 0xD67 PUSH2 0xB97 JUMP JUMPDEST SWAP1 POP PUSH2 0xD73 DUP3 DUP3 PUSH2 0xD2D JUMP JUMPDEST SWAP2 SWAP1 POP JUMP JUMPDEST PUSH0 PUSH8 0xFFFFFFFFFFFFFFFF DUP3 GT ISZERO PUSH2 0xD92 JUMPI PUSH2 0xD91 PUSH2 0xD00 JUMP JUMPDEST JUMPDEST PUSH2 0xD9B DUP3 PUSH2 0xC55 JUMP JUMPDEST SWAP1 POP PUSH1 0x20 DUP2 ADD SWAP1 POP SWAP2 SWAP1 POP JUMP JUMPDEST DUP3 DUP2 DUP4 CALLDATACOPY PUSH0 DUP4 DUP4 ADD MSTORE POP POP POP JUMP JUMPDEST PUSH0 PUSH2 0xDC8 PUSH2 0xDC3 DUP5 PUSH2 0xD78 JUMP JUMPDEST PUSH2 0xD5E JUMP JUMPDEST SWAP1 POP DUP3 DUP2 MSTORE PUSH1 0x20 DUP2 ADD DUP5 DUP5 DUP5 ADD GT ISZERO PUSH2 0xDE4 JUMPI PUSH2 0xDE3 PUSH2 0xCFC JUMP JUMPDEST JUMPDEST PUSH2 0xDEF DUP5 DUP3 DUP6 PUSH2 0xDA8 JUMP JUMPDEST POP SWAP4 SWAP3 POP POP POP JUMP JUMPDEST PUSH0 DUP3 PUSH1 0x1F DUP4 ADD SLT PUSH2 0xE0B JUMPI PUSH2 0xE0A PUSH2 0xCF8 JUMP JUMPDEST JUMPDEST DUP2 CALLDATALOAD PUSH2 0xE1B DUP5 DUP3 PUSH1 0x20 DUP7 ADD PUSH2 0xDB6 JUMP JUMPDEST SWAP2 POP POP SWAP3 SWAP2 POP POP JUMP JUMPDEST PUSH2 0xE2D DUP2 PUSH2 0xC9D JUMP JUMPDEST DUP2 EQ PUSH2 0xE37 JUMPI PUSH0 DUP1 REVERT JUMPDEST POP JUMP JUMPDEST PUSH0 DUP2 CALLDATALOAD SWAP1 POP PUSH2 0xE48 DUP2 PUSH2 0xE24 JUMP JUMPDEST SWAP3 SWAP2 POP POP JUMP JUMPDEST PUSH0 DUP1 PUSH0 PUSH1 0x60 DUP5 DUP7 SUB SLT ISZERO PUSH2 0xE65 JUMPI PUSH2 0xE64 PUSH2 0xBA0 JUMP JUMPDEST JUMPDEST PUSH0 DUP5 ADD CALLDATALOAD PUSH8 0xFFFFFFFFFFFFFFFF DUP2 GT ISZERO PUSH2 0xE82 JUMPI PUSH2 0xE81 PUSH2 0xBA4 JUMP JUMPDEST JUMPDEST PUSH2 0xE8E DUP7 DUP3 DUP8 ADD PUSH2 0xDF7 JUMP JUMPDEST SWAP4 POP POP PUSH1 0x20 PUSH2 0xE9F DUP7 DUP3 DUP8 ADD PUSH2 0xE3A JUMP JUMPDEST SWAP3 POP POP PUSH1 0x40 DUP5 ADD CALLDATALOAD PUSH8 0xFFFFFFFFFFFFFFFF DUP2 GT ISZERO PUSH2 0xEC0 JUMPI PUSH2 0xEBF PUSH2 0xBA4 JUMP JUMPDEST JUMPDEST PUSH2 0xECC DUP7 DUP3 DUP8 ADD PUSH2 0xDF7 JUMP JUMPDEST SWAP2 POP POP SWAP3 POP SWAP3 POP SWAP3 JUMP JUMPDEST PUSH2 0xEDF DUP2 PUSH2 0xBC7 JUMP JUMPDEST DUP3 MSTORE POP POP JUMP JUMPDEST PUSH0 PUSH1 0x80 DUP3 ADD SWAP1 POP DUP2 DUP2 SUB PUSH0 DUP4 ADD MSTORE PUSH2 0xEFD DUP2 DUP8 PUSH2 0xC65 JUMP JUMPDEST SWAP1 POP PUSH2 0xF0C PUSH1 0x20 DUP4 ADD DUP7 PUSH2 0xCA6 JUMP JUMPDEST DUP2 DUP2 SUB PUSH1 0x40 DUP4 ADD MSTORE PUSH2 0xF1E DUP2 DUP6 PUSH2 0xC65 JUMP JUMPDEST SWAP1 POP PUSH2 0xF2D PUSH1 0x60 DUP4 ADD DUP5 PUSH2 0xED6 JUMP JUMPDEST SWAP6 SWAP5 POP POP POP POP POP JUMP JUMPDEST PUSH0 PUSH1 0x20 DUP3 DUP5 SUB SLT ISZERO PUSH2 0xF4B JUMPI PUSH2 0xF4A PUSH2 0xBA0 JUMP JUMPDEST JUMPDEST PUSH0 PUSH2 0xF58 DUP5 DUP3 DUP6 ADD PUSH2 0xE3A JUMP JUMPDEST SWAP2 POP POP SWAP3 SWAP2 POP POP JUMP JUMPDEST PUSH0 PUSH1 0x20 DUP3 ADD SWAP1 POP PUSH2 0xF74 PUSH0 DUP4 ADD DUP5 PUSH2 0xED6 JUMP JUMPDEST SWAP3 SWAP2 POP POP JUMP JUMPDEST PUSH32 0x4E487B7100000000000000000000000000000000000000000000000000000000 PUSH0 MSTORE PUSH1 0x22 PUSH1 0x4 MSTORE PUSH1 0x24 PUSH0 REVERT JUMPDEST PUSH0 PUSH1 0x2 DUP3 DIV SWAP1 POP PUSH1 0x1 DUP3 AND DUP1 PUSH2 0xFBE JUMPI PUSH1 0x7F DUP3 AND SWAP2 POP JUMPDEST PUSH1 0x20 DUP3 LT DUP2 SUB PUSH2 0xFD1 JUMPI PUSH2 0xFD0 PUSH2 0xF7A JUMP JUMPDEST JUMPDEST POP SWAP2 SWAP1 POP JUMP JUMPDEST PUSH0 DUP2 SWAP1 POP DUP2 PUSH0 MSTORE PUSH1 0x20 PUSH0 KECCAK256 SWAP1 POP SWAP2 SWAP1 POP JUMP JUMPDEST PUSH0 PUSH1 0x20 PUSH1 0x1F DUP4 ADD DIV SWAP1 POP SWAP2 SWAP1 POP JUMP JUMPDEST PUSH0 DUP3 DUP3 SHL SWAP1 POP SWAP3 SWAP2 POP POP JUMP JUMPDEST PUSH0 PUSH1 0x8 DUP4 MUL PUSH2 0x1033 PUSH32 0xFFFFFFFFFFFFFFFFFFFFFFFFFFFFFFFFFFFFFFFFFFFFFFFFFFFFFFFFFFFFFFFF DUP3 PUSH2 0xFF8 JUMP JUMPDEST PUSH2 0x103D DUP7 DUP4 PUSH2 0xFF8 JUMP JUMPDEST SWAP6 POP DUP1 NOT DUP5 AND SWAP4 POP DUP1 DUP7 AND DUP5 OR SWAP3 POP POP POP SWAP4 SWAP3 POP POP POP JUMP JUMPDEST PUSH0 DUP2 SWAP1 POP SWAP2 SWAP1 POP JUMP JUMPDEST PUSH0 PUSH2 0x1078 PUSH2 0x1073 PUSH2 0x106E DUP5 PUSH2 0xC9D JUMP JUMPDEST PUSH2 0x1055 JUMP JUMPDEST PUSH2 0xC9D JUMP JUMPDEST SWAP1 POP SWAP2 SWAP1 POP JUMP JUMPDEST PUSH0 DUP2 SWAP1 POP SWAP2 SWAP1 POP JUMP JUMPDEST PUSH2 0x1091 DUP4 PUSH2 0x105E JUMP JUMPDEST PUSH2 0x10A5 PUSH2 0x109D DUP3 PUSH2 0x107F JUMP JUMPDEST DUP5 DUP5 SLOAD PUSH2 0x1004 JUMP JUMPDEST DUP3 SSTORE POP POP POP POP JUMP JUMPDEST PUSH0 SWAP1 JUMP JUMPDEST PUSH2 0x10B9 PUSH2 0x10AD JUMP JUMPDEST PUSH2 0x10C4 DUP2 DUP5 DUP5 PUSH2 0x1088 JUMP JUMPDEST POP POP POP JUMP JUMPDEST JUMPDEST DUP2 DUP2 LT ISZERO PUSH2 0x10E7 JUMPI PUSH2 0x10DC PUSH0 DUP3 PUSH2 0x10B1 JUMP JUMPDEST PUSH1 0x1 DUP2 ADD SWAP1 POP PUSH2 0x10CA JUMP JUMPDEST POP POP JUMP JUMPDEST PUSH1 0x1F DUP3 GT ISZERO PUSH2 0x112C JUMPI PUSH2 0x10FD DUP2 PUSH2 0xFD7 JUMP JUMPDEST PUSH2 0x1106 DUP5 PUSH2 0xFE9 JUMP JUMPDEST DUP2 ADD PUSH1 0x20 DUP6 LT ISZERO PUSH2 0x1115 JUMPI DUP2 SWAP1 POP JUMPDEST PUSH2 0x1129 PUSH2 0x1121 DUP6 PUSH2 0xFE9 JUMP JUMPDEST DUP4 ADD DUP3 PUSH2 0x10C9 JUMP JUMPDEST POP POP JUMPDEST POP POP POP JUMP JUMPDEST PUSH0 DUP3 DUP3 SHR SWAP1 POP SWAP3 SWAP2 POP POP JUMP JUMPDEST PUSH0 PUSH2 0x114C PUSH0 NOT DUP5 PUSH1 0x8 MUL PUSH2 0x1131 JUMP JUMPDEST NOT DUP1 DUP4 AND SWAP2 POP POP SWAP3 SWAP2 POP POP JUMP JUMPDEST PUSH0 PUSH2 0x1164 DUP4 DUP4 PUSH2 0x113D JUMP JUMPDEST SWAP2 POP DUP3 PUSH1 0x2 MUL DUP3 OR SWAP1 POP SWAP3 SWAP2 POP POP JUMP JUMPDEST PUSH2 0x117D DUP3 PUSH2 0xC2D JUMP JUMPDEST PUSH8 0xFFFFFFFFFFFFFFFF DUP2 GT ISZERO PUSH2 0x1196 JUMPI PUSH2 0x1195 PUSH2 0xD00 JUMP JUMPDEST JUMPDEST PUSH2 0x11A0 DUP3 SLOAD PUSH2 0xFA7 JUMP JUMPDEST PUSH2 0x11AB DUP3 DUP3 DUP6 PUSH2 0x10EB JUMP JUMPDEST PUSH0 PUSH1 0x20 SWAP1 POP PUSH1 0x1F DUP4 GT PUSH1 0x1 DUP2 EQ PUSH2 0x11DC JUMPI PUSH0 DUP5 ISZERO PUSH2 0x11CA JUMPI DUP3 DUP8 ADD MLOAD SWAP1 POP JUMPDEST PUSH2 0x11D4 DUP6 DUP3 PUSH2 0x1159 JUMP JUMPDEST DUP7 SSTORE POP PUSH2 0x123B JUMP JUMPDEST PUSH1 0x1F NOT DUP5 AND PUSH2 0x11EA DUP7 PUSH2 0xFD7 JUMP JUMPDEST PUSH0 JUMPDEST DUP3 DUP2 LT ISZERO PUSH2 0x1211 JUMPI DUP5 DUP10 ADD MLOAD DUP3 SSTORE PUSH1 0x1 DUP3 ADD SWAP2 POP PUSH1 0x20 DUP6 ADD SWAP5 POP PUSH1 0x20 DUP2 ADD SWAP1 POP PUSH2 0x11EC JUMP JUMPDEST DUP7 DUP4 LT ISZERO PUSH2 0x122E JUMPI DUP5 DUP10 ADD MLOAD PUSH2 0x122A PUSH1 0x1F DUP10 AND DUP3 PUSH2 0x113D JUMP JUMPDEST DUP4 SSTORE POP JUMPDEST PUSH1 0x1 PUSH1 0x2 DUP9 MUL ADD DUP9 SSTORE POP POP POP JUMPDEST POP POP POP POP POP POP JUMP INVALID LOG2 PUSH5 0x6970667358 0x22 SLT KECCAK256 DUP1 0xDA DUP1 MULMOD PC 0xCB 0xD6 LOG0 SWAP11 0xDF DUP8 PUSH22 0x53D53A08A3969E989BDC67A1442C311B86F2DA8C6473 PUSH16 0x6C634300081A00330000000000000000 "
		},
		"gasEstimates": {
			"creation": {
				"codeDepositCost": "945800",
				"executionCost": "979",
				"totalCost": "946779"
			},
			"external": {
				"getStudent(address)": "infinite",
				"getTeacher(address)": "infinite",
				"registerStudent(string,uint256,string)": "infinite",
				"registerTeacher(string,uint256,string)": "infinite",
				"studentAccounts(uint256)": "5011",
				"students(address)": "infinite",
				"teacherAccounts(uint256)": "4944",
				"teachers(address)": "infinite"
			}
		},
		"methodIdentifiers": {
			"getStudent(address)": "6b7b44d7",
			"getTeacher(address)": "fb4326fa",
			"registerStudent(string,uint256,string)": "7cce1c03",
			"registerTeacher(string,uint256,string)": "ed70e88b",
			"studentAccounts(uint256)": "cd4e0025",
			"students(address)": "a6c807a9",
			"teacherAccounts(uint256)": "eb3734d6",
			"teachers(address)": "f0a47f78"
		}
	},
	"abi": [
		{
			"inputs": [
				{
					"internalType": "address",
					"name": "_studentAddress",
					"type": "address"
				}
			],
			"name": "getStudent",
			"outputs": [
				{
					"internalType": "string",
					"name": "",
					"type": "string"
				},
				{
					"internalType": "uint256",
					"name": "",
					"type": "uint256"
				},
				{
					"internalType": "string",
					"name": "",
					"type": "string"
				}
			],
			"stateMutability": "view",
			"type": "function"
		},
		{
			"inputs": [
				{
					"internalType": "address",
					"name": "_teacherAddress",
					"type": "address"
				}
			],
			"name": "getTeacher",
			"outputs": [
				{
					"internalType": "string",
					"name": "",
					"type": "string"
				},
				{
					"internalType": "uint256",
					"name": "",
					"type": "uint256"
				},
				{
					"internalType": "string",
					"name": "",
					"type": "string"
				}
			],
			"stateMutability": "view",
			"type": "function"
		},
		{
			"inputs": [
				{
					"internalType": "string",
					"name": "_name",
					"type": "string"
				},
				{
					"internalType": "uint256",
					"name": "_age",
					"type": "uint256"
				},
				{
					"internalType": "string",
					"name": "_class",
					"type": "string"
				}
			],
			"name": "registerStudent",
			"outputs": [],
			"stateMutability": "nonpayable",
			"type": "function"
		},
		{
			"inputs": [
				{
					"internalType": "string",
					"name": "_name",
					"type": "string"
				},
				{
					"internalType": "uint256",
					"name": "_age",
					"type": "uint256"
				},
				{
					"internalType": "string",
					"name": "_subject",
					"type": "string"
				}
			],
			"name": "registerTeacher",
			"outputs": [],
			"stateMutability": "nonpayable",
			"type": "function"
		},
		{
			"inputs": [
				{
					"internalType": "uint256",
					"name": "",
					"type": "uint256"
				}
			],
			"name": "studentAccounts",
			"outputs": [
				{
					"internalType": "address",
					"name": "",
					"type": "address"
				}
			],
			"stateMutability": "view",
			"type": "function"
		},
		{
			"inputs": [
				{
					"internalType": "address",
					"name": "",
					"type": "address"
				}
			],
			"name": "students",
			"outputs": [
				{
					"internalType": "string",
					"name": "name",
					"type": "string"
				},
				{
					"internalType": "uint256",
					"name": "age",
					"type": "uint256"
				},
				{
					"internalType": "string",
					"name": "class",
					"type": "string"
				},
				{
					"internalType": "address",
					"name": "studentAddress",
					"type": "address"
				}
			],
			"stateMutability": "view",
			"type": "function"
		},
		{
			"inputs": [
				{
					"internalType": "uint256",
					"name": "",
					"type": "uint256"
				}
			],
			"name": "teacherAccounts",
			"outputs": [
				{
					"internalType": "address",
					"name": "",
					"type": "address"
				}
			],
			"stateMutability": "view",
			"type": "function"
		},
		{
			"inputs": [
				{
					"internalType": "address",
					"name": "",
					"type": "address"
				}
			],
			"name": "teachers",
			"outputs": [
				{
					"internalType": "string",
					"name": "name",
					"type": "string"
				},
				{
					"internalType": "uint256",
					"name": "age",
					"type": "uint256"
				},
				{
					"internalType": "string",
					"name": "subject",
					"type": "string"
				},
				{
					"internalType": "address",
					"name": "teacherAddress",
					"type": "address"
				}
			],
			"stateMutability": "view",
			"type": "function"
		}
	]
}